{
  "address": "0x5FbDB2315678afecb367f032d93F642f64180aa3",
  "abi": [
    {
      "inputs": [
        {
          "internalType": "uint256",
          "name": "_mintFee",
          "type": "uint256"
        }
      ],
      "stateMutability": "nonpayable",
      "type": "constructor"
    },
    {
      "anonymous": false,
      "inputs": [
        {
          "indexed": true,
          "internalType": "address",
          "name": "owner",
          "type": "address"
        },
        {
          "indexed": true,
          "internalType": "address",
          "name": "approved",
          "type": "address"
        },
        {
          "indexed": true,
          "internalType": "uint256",
          "name": "tokenId",
          "type": "uint256"
        }
      ],
      "name": "Approval",
      "type": "event"
    },
    {
      "anonymous": false,
      "inputs": [
        {
          "indexed": true,
          "internalType": "address",
          "name": "owner",
          "type": "address"
        },
        {
          "indexed": true,
          "internalType": "address",
          "name": "operator",
          "type": "address"
        },
        {
          "indexed": false,
          "internalType": "bool",
          "name": "approved",
          "type": "bool"
        }
      ],
      "name": "ApprovalForAll",
      "type": "event"
    },
    {
      "anonymous": false,
      "inputs": [
        {
          "indexed": true,
          "internalType": "address",
          "name": "delegator",
          "type": "address"
        },
        {
          "indexed": true,
          "internalType": "address",
          "name": "fromDelegate",
          "type": "address"
        },
        {
          "indexed": true,
          "internalType": "address",
          "name": "toDelegate",
          "type": "address"
        }
      ],
      "name": "DelegateChanged",
      "type": "event"
    },
    {
      "anonymous": false,
      "inputs": [
        {
          "indexed": true,
          "internalType": "address",
          "name": "delegate",
          "type": "address"
        },
        {
          "indexed": false,
          "internalType": "uint256",
          "name": "previousBalance",
          "type": "uint256"
        },
        {
          "indexed": false,
          "internalType": "uint256",
          "name": "newBalance",
          "type": "uint256"
        }
      ],
      "name": "DelegateVotesChanged",
      "type": "event"
    },
    {
      "anonymous": false,
      "inputs": [
        {
          "indexed": true,
          "internalType": "address",
          "name": "previousOwner",
          "type": "address"
        },
        {
          "indexed": true,
          "internalType": "address",
          "name": "newOwner",
          "type": "address"
        }
      ],
      "name": "OwnershipTransferred",
      "type": "event"
    },
    {
      "anonymous": false,
      "inputs": [
        {
          "indexed": true,
          "internalType": "address",
          "name": "from",
          "type": "address"
        },
        {
          "indexed": true,
          "internalType": "address",
          "name": "to",
          "type": "address"
        },
        {
          "indexed": true,
          "internalType": "uint256",
          "name": "tokenId",
          "type": "uint256"
        }
      ],
      "name": "Transfer",
      "type": "event"
    },
    {
      "anonymous": false,
      "inputs": [
        {
          "indexed": false,
          "internalType": "uint256",
          "name": "amount",
          "type": "uint256"
        },
        {
          "indexed": true,
          "internalType": "address",
          "name": "toAddress",
          "type": "address"
        }
      ],
      "name": "amountWithdrawn",
      "type": "event"
    },
    {
      "anonymous": false,
      "inputs": [
        {
          "indexed": true,
          "internalType": "string",
          "name": "breed",
          "type": "string"
        },
        {
          "indexed": false,
          "internalType": "uint256",
          "name": "",
          "type": "uint256"
        }
      ],
      "name": "breedAssigned",
      "type": "event"
    },
    {
      "inputs": [],
      "name": "DOMAIN_SEPARATOR",
      "outputs": [
        {
          "internalType": "bytes32",
          "name": "",
          "type": "bytes32"
        }
      ],
      "stateMutability": "view",
      "type": "function"
    },
    {
      "inputs": [
        {
          "internalType": "address",
          "name": "to",
          "type": "address"
        },
        {
          "internalType": "uint256",
          "name": "tokenId",
          "type": "uint256"
        }
      ],
      "name": "approve",
      "outputs": [],
      "stateMutability": "nonpayable",
      "type": "function"
    },
    {
      "inputs": [
        {
          "internalType": "address",
          "name": "owner",
          "type": "address"
        }
      ],
      "name": "balanceOf",
      "outputs": [
        {
          "internalType": "uint256",
          "name": "",
          "type": "uint256"
        }
      ],
      "stateMutability": "view",
      "type": "function"
    },
    {
      "inputs": [
        {
          "internalType": "uint256",
          "name": "",
          "type": "uint256"
        }
      ],
      "name": "breed",
      "outputs": [
        {
          "internalType": "string",
          "name": "",
          "type": "string"
        }
      ],
      "stateMutability": "view",
      "type": "function"
    },
    {
      "inputs": [
        {
          "internalType": "address",
          "name": "nft_owner",
          "type": "address"
        }
      ],
      "name": "checkOwner",
      "outputs": [
        {
          "internalType": "uint256",
          "name": "repetitionIndex",
          "type": "uint256"
        }
      ],
      "stateMutability": "view",
      "type": "function"
    },
    {
      "inputs": [
        {
          "internalType": "uint256",
          "name": "breed_index",
          "type": "uint256"
        }
      ],
      "name": "createNft",
      "outputs": [],
      "stateMutability": "payable",
      "type": "function"
    },
    {
      "inputs": [
        {
          "internalType": "address",
          "name": "delegatee",
          "type": "address"
        }
      ],
      "name": "delegate",
      "outputs": [],
      "stateMutability": "nonpayable",
      "type": "function"
    },
    {
      "inputs": [
        {
          "internalType": "address",
          "name": "delegatee",
          "type": "address"
        },
        {
          "internalType": "uint256",
          "name": "nonce",
          "type": "uint256"
        },
        {
          "internalType": "uint256",
          "name": "expiry",
          "type": "uint256"
        },
        {
          "internalType": "uint8",
          "name": "v",
          "type": "uint8"
        },
        {
          "internalType": "bytes32",
          "name": "r",
          "type": "bytes32"
        },
        {
          "internalType": "bytes32",
          "name": "s",
          "type": "bytes32"
        }
      ],
      "name": "delegateBySig",
      "outputs": [],
      "stateMutability": "nonpayable",
      "type": "function"
    },
    {
      "inputs": [
        {
          "internalType": "address",
          "name": "account",
          "type": "address"
        }
      ],
      "name": "delegates",
      "outputs": [
        {
          "internalType": "address",
          "name": "",
          "type": "address"
        }
      ],
      "stateMutability": "view",
      "type": "function"
    },
    {
      "inputs": [
        {
          "internalType": "uint256",
          "name": "",
          "type": "uint256"
        }
      ],
      "name": "fucha_owners",
      "outputs": [
        {
          "internalType": "address",
          "name": "",
          "type": "address"
        }
      ],
      "stateMutability": "view",
      "type": "function"
    },
    {
      "inputs": [
        {
          "internalType": "uint256",
          "name": "tokenId",
          "type": "uint256"
        }
      ],
      "name": "getApproved",
      "outputs": [
        {
          "internalType": "address",
          "name": "",
          "type": "address"
        }
      ],
      "stateMutability": "view",
      "type": "function"
    },
    {
      "inputs": [],
      "name": "getMintFee",
      "outputs": [
        {
          "internalType": "uint256",
          "name": "",
          "type": "uint256"
        }
      ],
      "stateMutability": "view",
      "type": "function"
    },
    {
      "inputs": [
        {
          "internalType": "uint256",
          "name": "blockNumber",
          "type": "uint256"
        }
      ],
      "name": "getPastTotalSupply",
      "outputs": [
        {
          "internalType": "uint256",
          "name": "",
          "type": "uint256"
        }
      ],
      "stateMutability": "view",
      "type": "function"
    },
    {
      "inputs": [
        {
          "internalType": "address",
          "name": "account",
          "type": "address"
        },
        {
          "internalType": "uint256",
          "name": "blockNumber",
          "type": "uint256"
        }
      ],
      "name": "getPastVotes",
      "outputs": [
        {
          "internalType": "uint256",
          "name": "",
          "type": "uint256"
        }
      ],
      "stateMutability": "view",
      "type": "function"
    },
    {
      "inputs": [
        {
          "internalType": "address",
          "name": "account",
          "type": "address"
        }
      ],
      "name": "getVotes",
      "outputs": [
        {
          "internalType": "uint256",
          "name": "",
          "type": "uint256"
        }
      ],
      "stateMutability": "view",
      "type": "function"
    },
    {
      "inputs": [
        {
          "internalType": "address",
          "name": "owner",
          "type": "address"
        },
        {
          "internalType": "address",
          "name": "operator",
          "type": "address"
        }
      ],
      "name": "isApprovedForAll",
      "outputs": [
        {
          "internalType": "bool",
          "name": "",
          "type": "bool"
        }
      ],
      "stateMutability": "view",
      "type": "function"
    },
    {
      "inputs": [],
      "name": "name",
      "outputs": [
        {
          "internalType": "string",
          "name": "",
          "type": "string"
        }
      ],
      "stateMutability": "view",
      "type": "function"
    },
    {
      "inputs": [
        {
          "internalType": "address",
          "name": "owner",
          "type": "address"
        }
      ],
      "name": "nonces",
      "outputs": [
        {
          "internalType": "uint256",
          "name": "",
          "type": "uint256"
        }
      ],
      "stateMutability": "view",
      "type": "function"
    },
    {
      "inputs": [],
      "name": "owner",
      "outputs": [
        {
          "internalType": "address",
          "name": "",
          "type": "address"
        }
      ],
      "stateMutability": "view",
      "type": "function"
    },
    {
      "inputs": [
        {
          "internalType": "uint256",
          "name": "tokenId",
          "type": "uint256"
        }
      ],
      "name": "ownerOf",
      "outputs": [
        {
          "internalType": "address",
          "name": "",
          "type": "address"
        }
      ],
      "stateMutability": "view",
      "type": "function"
    },
    {
      "inputs": [],
      "name": "renounceOwnership",
      "outputs": [],
      "stateMutability": "nonpayable",
      "type": "function"
    },
    {
      "inputs": [
        {
          "internalType": "address",
          "name": "from",
          "type": "address"
        },
        {
          "internalType": "address",
          "name": "to",
          "type": "address"
        },
        {
          "internalType": "uint256",
          "name": "tokenId",
          "type": "uint256"
        }
      ],
      "name": "safeTransferFrom",
      "outputs": [],
      "stateMutability": "nonpayable",
      "type": "function"
    },
    {
      "inputs": [
        {
          "internalType": "address",
          "name": "from",
          "type": "address"
        },
        {
          "internalType": "address",
          "name": "to",
          "type": "address"
        },
        {
          "internalType": "uint256",
          "name": "tokenId",
          "type": "uint256"
        },
        {
          "internalType": "bytes",
          "name": "data",
          "type": "bytes"
        }
      ],
      "name": "safeTransferFrom",
      "outputs": [],
      "stateMutability": "nonpayable",
      "type": "function"
    },
    {
      "inputs": [
        {
          "internalType": "address",
          "name": "operator",
          "type": "address"
        },
        {
          "internalType": "bool",
          "name": "approved",
          "type": "bool"
        }
      ],
      "name": "setApprovalForAll",
      "outputs": [],
      "stateMutability": "nonpayable",
      "type": "function"
    },
    {
      "inputs": [
        {
          "internalType": "uint256",
          "name": "tokenId",
          "type": "uint256"
        },
        {
          "internalType": "string",
          "name": "_tokenURI",
          "type": "string"
        }
      ],
      "name": "setTokenUri",
      "outputs": [],
      "stateMutability": "nonpayable",
      "type": "function"
    },
    {
      "inputs": [
        {
          "internalType": "bytes4",
          "name": "interfaceId",
          "type": "bytes4"
        }
      ],
      "name": "supportsInterface",
      "outputs": [
        {
          "internalType": "bool",
          "name": "",
          "type": "bool"
        }
      ],
      "stateMutability": "view",
      "type": "function"
    },
    {
      "inputs": [],
      "name": "symbol",
      "outputs": [
        {
          "internalType": "string",
          "name": "",
          "type": "string"
        }
      ],
      "stateMutability": "view",
      "type": "function"
    },
    {
      "inputs": [],
      "name": "tokenCounter",
      "outputs": [
        {
          "internalType": "uint256",
          "name": "",
          "type": "uint256"
        }
      ],
      "stateMutability": "view",
      "type": "function"
    },
    {
      "inputs": [
        {
          "internalType": "uint256",
          "name": "",
          "type": "uint256"
        }
      ],
      "name": "tokenIdToBreed",
      "outputs": [
        {
          "internalType": "string",
          "name": "",
          "type": "string"
        }
      ],
      "stateMutability": "view",
      "type": "function"
    },
    {
      "inputs": [
        {
          "internalType": "uint256",
          "name": "tokenId",
          "type": "uint256"
        }
      ],
      "name": "tokenURI",
      "outputs": [
        {
          "internalType": "string",
          "name": "",
          "type": "string"
        }
      ],
      "stateMutability": "view",
      "type": "function"
    },
    {
      "inputs": [
        {
          "internalType": "address",
          "name": "from",
          "type": "address"
        },
        {
          "internalType": "address",
          "name": "to",
          "type": "address"
        },
        {
          "internalType": "uint256",
          "name": "tokenId",
          "type": "uint256"
        }
      ],
      "name": "transferFrom",
      "outputs": [],
      "stateMutability": "nonpayable",
      "type": "function"
    },
    {
      "inputs": [
        {
          "internalType": "address",
          "name": "newOwner",
          "type": "address"
        }
      ],
      "name": "transferOwnership",
      "outputs": [],
      "stateMutability": "nonpayable",
      "type": "function"
    },
    {
      "inputs": [
        {
          "internalType": "uint256",
          "name": "_amount",
          "type": "uint256"
        },
        {
          "internalType": "address",
          "name": "toAddress",
          "type": "address"
        }
      ],
      "name": "withdraw",
      "outputs": [],
      "stateMutability": "nonpayable",
      "type": "function"
    }
  ],
  "transactionHash": "0x23f368c26e58729cc4e5f3b84a81ff7d567f72861855d62f68aa924aa6ed2225",
  "args": [
    10000000000
  ],
  "numDeployments": 1,
  "solcInputHash": "9b0d9cdce6554a17b24c5903ad85194f",
  "bytecode": "0x61014060405260405180608001604052806040518060400160405280600a81526020017f6675636861486970706f0000000000000000000000000000000000000000000081525081526020016040518060400160405280600a81526020017f667563686153696d62610000000000000000000000000000000000000000000081525081526020016040518060400160405280600a81526020017f66756368615268696e6f0000000000000000000000000000000000000000000081525081526020016040518060400160405280600a81526020017f66756368614e7961746900000000000000000000000000000000000000000000815250815250600f9060046200010c92919062000428565b503480156200011a57600080fd5b506040516200654538038062006545833981810160405281019062000140919062000555565b6040518060400160405280600881526020017f66756368614e66740000000000000000000000000000000000000000000000008152506040518060400160405280600181526020017f31000000000000000000000000000000000000000000000000000000000000008152506040518060400160405280600881526020017f66756368614e66740000000000000000000000000000000000000000000000008152506040518060400160405280600381526020017f46434200000000000000000000000000000000000000000000000000000000008152508160009081620002299190620007f7565b5080600190816200023b9190620007f7565b5050506200025e620002526200031e60201b60201c565b6200032660201b60201c565b60008280519060200120905060008280519060200120905060007f8b73c3c69bb8fe3d512ecc4cf759cc79239f7b179b0ffacaa9a75d522b39400f90508260e081815250508161010081815250504660a08181525050620002c7818484620003ec60201b60201c565b608081815250503073ffffffffffffffffffffffffffffffffffffffff1660c08173ffffffffffffffffffffffffffffffffffffffff168152505080610120818152505050505050508060108190555050620009ac565b600033905090565b6000600760009054906101000a900473ffffffffffffffffffffffffffffffffffffffff16905081600760006101000a81548173ffffffffffffffffffffffffffffffffffffffff021916908373ffffffffffffffffffffffffffffffffffffffff1602179055508173ffffffffffffffffffffffffffffffffffffffff168173ffffffffffffffffffffffffffffffffffffffff167f8be0079c531659141344cd1fd0a4f28419497f9722a3daafe3b4186f6b6457e060405160405180910390a35050565b60008383834630604051602001620004099594939291906200094f565b6040516020818303038152906040528051906020012090509392505050565b82805482825590600052602060002090810192821562000475579160200282015b8281111562000474578251829081620004639190620007f7565b509160200191906001019062000449565b5b50905062000484919062000488565b5090565b5b80821115620004ac5760008181620004a29190620004b0565b5060010162000489565b5090565b508054620004be90620005f0565b6000825580601f10620004d25750620004f3565b601f016020900490600052602060002090810190620004f29190620004f6565b5b50565b5b8082111562000511576000816000905550600101620004f7565b5090565b600080fd5b6000819050919050565b6200052f816200051a565b81146200053b57600080fd5b50565b6000815190506200054f8162000524565b92915050565b6000602082840312156200056e576200056d62000515565b5b60006200057e848285016200053e565b91505092915050565b600081519050919050565b7f4e487b7100000000000000000000000000000000000000000000000000000000600052604160045260246000fd5b7f4e487b7100000000000000000000000000000000000000000000000000000000600052602260045260246000fd5b600060028204905060018216806200060957607f821691505b6020821081036200061f576200061e620005c1565b5b50919050565b60008190508160005260206000209050919050565b60006020601f8301049050919050565b600082821b905092915050565b600060088302620006897fffffffffffffffffffffffffffffffffffffffffffffffffffffffffffffffff826200064a565b6200069586836200064a565b95508019841693508086168417925050509392505050565b6000819050919050565b6000620006d8620006d2620006cc846200051a565b620006ad565b6200051a565b9050919050565b6000819050919050565b620006f483620006b7565b6200070c6200070382620006df565b84845462000657565b825550505050565b600090565b6200072362000714565b62000730818484620006e9565b505050565b5b8181101562000758576200074c60008262000719565b60018101905062000736565b5050565b601f821115620007a757620007718162000625565b6200077c846200063a565b810160208510156200078c578190505b620007a46200079b856200063a565b83018262000735565b50505b505050565b600082821c905092915050565b6000620007cc60001984600802620007ac565b1980831691505092915050565b6000620007e78383620007b9565b9150826002028217905092915050565b620008028262000587565b67ffffffffffffffff8111156200081e576200081d62000592565b5b6200082a8254620005f0565b620008378282856200075c565b600060209050601f8311600181146200086f57600084156200085a578287015190505b620008668582620007d9565b865550620008d6565b601f1984166200087f8662000625565b60005b82811015620008a95784890151825560018201915060208501945060208101905062000882565b86831015620008c95784890151620008c5601f891682620007b9565b8355505b6001600288020188555050505b505050505050565b6000819050919050565b620008f381620008de565b82525050565b62000904816200051a565b82525050565b600073ffffffffffffffffffffffffffffffffffffffff82169050919050565b600062000937826200090a565b9050919050565b62000949816200092a565b82525050565b600060a082019050620009666000830188620008e8565b620009756020830187620008e8565b620009846040830186620008e8565b620009936060830185620008f9565b620009a260808301846200093e565b9695505050505050565b60805160a05160c05160e0516101005161012051615b49620009fc6000396000611f2501526000611f6701526000611f4601526000611e7b01526000611ed101526000611efa0152615b496000f3fe6080604052600436106101ed5760003560e01c80637a5caab31161010d578063b88d4fde116100a0578063d082e3811161006f578063d082e3811461076a578063e0e3671c14610795578063e985e9c5146107d2578063f2fde38b1461080f578063f6459d4714610838576101ed565b8063b88d4fde1461069e578063c3cda520146106c7578063c87b56dd146106f0578063cbbc3c281461072d576101ed565b806395d89b41116100dc57806395d89b41146105d05780639ab24eb0146105fb578063a22cb46514610638578063af9a1cd214610661576101ed565b80637a5caab3146105005780637ecebe001461052b5780638da5cb5b146105685780638e539e8c14610593576101ed565b80633a46b1a8116101855780635c19a95c116101545780635c19a95c146104465780636352211e1461046f57806370a08231146104ac578063715018a6146104e9576101ed565b80633a46b1a81461037a57806342842e0e146103b757806357f7789e146103e0578063587cde1e14610409576101ed565b8063095ea7b3116101c1578063095ea7b3146102c057806323b872dd146102e957806334cb507d146103125780633644e5151461034f576101ed565b8062f714ce146101f257806301ffc9a71461021b57806306fdde0314610258578063081812fc14610283575b600080fd5b3480156101fe57600080fd5b5061021960048036038101906102149190613e06565b610854565b005b34801561022757600080fd5b50610242600480360381019061023d9190613e9e565b610937565b60405161024f9190613ee6565b60405180910390f35b34801561026457600080fd5b5061026d610a19565b60405161027a9190613f91565b60405180910390f35b34801561028f57600080fd5b506102aa60048036038101906102a59190613fb3565b610aab565b6040516102b79190613fef565b60405180910390f35b3480156102cc57600080fd5b506102e760048036038101906102e2919061400a565b610af1565b005b3480156102f557600080fd5b50610310600480360381019061030b919061404a565b610c08565b005b34801561031e57600080fd5b5061033960048036038101906103349190613fb3565b610c68565b6040516103469190613fef565b60405180910390f35b34801561035b57600080fd5b50610364610ca7565b60405161037191906140b6565b60405180910390f35b34801561038657600080fd5b506103a1600480360381019061039c919061400a565b610cb6565b6040516103ae91906140e0565b60405180910390f35b3480156103c357600080fd5b506103de60048036038101906103d9919061404a565b610d11565b005b3480156103ec57600080fd5b5061040760048036038101906104029190614230565b610d31565b005b34801561041557600080fd5b50610430600480360381019061042b919061428c565b610d8f565b60405161043d9190613fef565b60405180910390f35b34801561045257600080fd5b5061046d6004803603810190610468919061428c565b610df8565b005b34801561047b57600080fd5b5061049660048036038101906104919190613fb3565b610e12565b6040516104a39190613fef565b60405180910390f35b3480156104b857600080fd5b506104d360048036038101906104ce919061428c565b610e98565b6040516104e091906140e0565b60405180910390f35b3480156104f557600080fd5b506104fe610f4f565b005b34801561050c57600080fd5b50610515610f63565b60405161052291906140e0565b60405180910390f35b34801561053757600080fd5b50610552600480360381019061054d919061428c565b610f6d565b60405161055f91906140e0565b60405180910390f35b34801561057457600080fd5b5061057d610fbd565b60405161058a9190613fef565b60405180910390f35b34801561059f57600080fd5b506105ba60048036038101906105b59190613fb3565b610fe7565b6040516105c791906140e0565b60405180910390f35b3480156105dc57600080fd5b506105e5611046565b6040516105f29190613f91565b60405180910390f35b34801561060757600080fd5b50610622600480360381019061061d919061428c565b6110d8565b60405161062f91906140e0565b60405180910390f35b34801561064457600080fd5b5061065f600480360381019061065a91906142e5565b611146565b005b34801561066d57600080fd5b5061068860048036038101906106839190613fb3565b61115c565b6040516106959190613f91565b60405180910390f35b3480156106aa57600080fd5b506106c560048036038101906106c091906143c6565b611208565b005b3480156106d357600080fd5b506106ee60048036038101906106e991906144ae565b61126a565b005b3480156106fc57600080fd5b5061071760048036038101906107129190613fb3565b61136e565b6040516107249190613f91565b60405180910390f35b34801561073957600080fd5b50610754600480360381019061074f9190613fb3565b611380565b6040516107619190613f91565b60405180910390f35b34801561077657600080fd5b5061077f611420565b60405161078c91906140e0565b60405180910390f35b3480156107a157600080fd5b506107bc60048036038101906107b7919061428c565b611426565b6040516107c991906140e0565b60405180910390f35b3480156107de57600080fd5b506107f960048036038101906107f4919061453b565b6114f0565b6040516108069190613ee6565b60405180910390f35b34801561081b57600080fd5b506108366004803603810190610831919061428c565b611584565b005b610852600480360381019061084d9190613fb3565b611607565b005b61085c6118f5565b47821061089e576040517f08c379a0000000000000000000000000000000000000000000000000000000008152600401610895906145ed565b60405180910390fd5b8073ffffffffffffffffffffffffffffffffffffffff166108fc839081150290604051600060405180830381858888f193505050501580156108e4573d6000803e3d6000fd5b508073ffffffffffffffffffffffffffffffffffffffff167f1183b9976ba7e66a8755695e89a7a606aa934ab60f33d59a5ed8edf53ac8abe98360405161092b91906140e0565b60405180910390a25050565b60007f80ac58cd000000000000000000000000000000000000000000000000000000007bffffffffffffffffffffffffffffffffffffffffffffffffffffffff1916827bffffffffffffffffffffffffffffffffffffffffffffffffffffffff19161480610a0257507f5b5e139f000000000000000000000000000000000000000000000000000000007bffffffffffffffffffffffffffffffffffffffffffffffffffffffff1916827bffffffffffffffffffffffffffffffffffffffffffffffffffffffff1916145b80610a125750610a1182611973565b5b9050919050565b606060008054610a289061463c565b80601f0160208091040260200160405190810160405280929190818152602001828054610a549061463c565b8015610aa15780601f10610a7657610100808354040283529160200191610aa1565b820191906000526020600020905b815481529060010190602001808311610a8457829003601f168201915b5050505050905090565b6000610ab6826119dd565b6004600083815260200190815260200160002060009054906101000a900473ffffffffffffffffffffffffffffffffffffffff169050919050565b6000610afc82610e12565b90508073ffffffffffffffffffffffffffffffffffffffff168373ffffffffffffffffffffffffffffffffffffffff1603610b6c576040517f08c379a0000000000000000000000000000000000000000000000000000000008152600401610b63906146df565b60405180910390fd5b8073ffffffffffffffffffffffffffffffffffffffff16610b8b611a28565b73ffffffffffffffffffffffffffffffffffffffff161480610bba5750610bb981610bb4611a28565b6114f0565b5b610bf9576040517f08c379a0000000000000000000000000000000000000000000000000000000008152600401610bf090614771565b60405180910390fd5b610c038383611a30565b505050565b610c19610c13611a28565b82611ae9565b610c58576040517f08c379a0000000000000000000000000000000000000000000000000000000008152600401610c4f90614803565b60405180910390fd5b610c63838383611b7e565b505050565b600e8181548110610c7857600080fd5b906000526020600020016000915054906101000a900473ffffffffffffffffffffffffffffffffffffffff1681565b6000610cb1611e77565b905090565b6000610d0982600960008673ffffffffffffffffffffffffffffffffffffffff1673ffffffffffffffffffffffffffffffffffffffff168152602001908152602001600020611f9190919063ffffffff16565b905092915050565b610d2c83838360405180602001604052806000815250611208565b505050565b60011515610d3f3384611ae9565b151514610d81576040517f08c379a0000000000000000000000000000000000000000000000000000000008152600401610d7890614895565b60405180910390fd5b610d8b82826120f6565b5050565b6000600860008373ffffffffffffffffffffffffffffffffffffffff1673ffffffffffffffffffffffffffffffffffffffff16815260200190815260200160002060009054906101000a900473ffffffffffffffffffffffffffffffffffffffff169050919050565b6000610e02611a28565b9050610e0e8183612163565b5050565b600080610e1e83612277565b9050600073ffffffffffffffffffffffffffffffffffffffff168173ffffffffffffffffffffffffffffffffffffffff1603610e8f576040517f08c379a0000000000000000000000000000000000000000000000000000000008152600401610e8690614901565b60405180910390fd5b80915050919050565b60008073ffffffffffffffffffffffffffffffffffffffff168273ffffffffffffffffffffffffffffffffffffffff1603610f08576040517f08c379a0000000000000000000000000000000000000000000000000000000008152600401610eff90614993565b60405180910390fd5b600360008373ffffffffffffffffffffffffffffffffffffffff1673ffffffffffffffffffffffffffffffffffffffff168152602001908152602001600020549050919050565b610f576118f5565b610f6160006122b4565b565b6000601054905090565b6000610fb6600b60008473ffffffffffffffffffffffffffffffffffffffff1673ffffffffffffffffffffffffffffffffffffffff16815260200190815260200160002061237a565b9050919050565b6000600760009054906101000a900473ffffffffffffffffffffffffffffffffffffffff16905090565b600043821061102b576040517f08c379a0000000000000000000000000000000000000000000000000000000008152600401611022906149ff565b60405180910390fd5b61103f82600a611f9190919063ffffffff16565b9050919050565b6060600180546110559061463c565b80601f01602080910402602001604051908101604052809291908181526020018280546110819061463c565b80156110ce5780601f106110a3576101008083540402835291602001916110ce565b820191906000526020600020905b8154815290600101906020018083116110b157829003601f168201915b5050505050905090565b6000611121600960008473ffffffffffffffffffffffffffffffffffffffff1673ffffffffffffffffffffffffffffffffffffffff168152602001908152602001600020612388565b7bffffffffffffffffffffffffffffffffffffffffffffffffffffffff169050919050565b611158611151611a28565b83836123f2565b5050565b600f818154811061116c57600080fd5b9060005260206000200160009150905080546111879061463c565b80601f01602080910402602001604051908101604052809291908181526020018280546111b39061463c565b80156112005780601f106111d557610100808354040283529160200191611200565b820191906000526020600020905b8154815290600101906020018083116111e357829003601f168201915b505050505081565b611219611213611a28565b83611ae9565b611258576040517f08c379a000000000000000000000000000000000000000000000000000000000815260040161124f90614803565b60405180910390fd5b6112648484848461255e565b50505050565b834211156112ad576040517f08c379a00000000000000000000000000000000000000000000000000000000081526004016112a490614a6b565b60405180910390fd5b600061130f6113077fe48329057bfd03d55e49b547132e39cffd9c1820ad7b9d4c5307691425d15adf8989896040516020016112ec9493929190614a8b565b604051602081830303815290604052805190602001206125ba565b8585856125d4565b905061131a816125ff565b861461135b576040517f08c379a000000000000000000000000000000000000000000000000000000000815260040161135290614b1c565b60405180910390fd5b6113658188612163565b50505050505050565b60606113798261265d565b9050919050565b6011602052806000526040600020600091509050805461139f9061463c565b80601f01602080910402602001604051908101604052809291908181526020018280546113cb9061463c565b80156114185780601f106113ed57610100808354040283529160200191611418565b820191906000526020600020905b8154815290600101906020018083116113fb57829003601f168201915b505050505081565b600c5481565b6000805b600e805490508110156114e9576000811480156114b057508273ffffffffffffffffffffffffffffffffffffffff16600e828154811061146d5761146c614b3c565b5b9060005260206000200160009054906101000a900473ffffffffffffffffffffffffffffffffffffffff1673ffffffffffffffffffffffffffffffffffffffff16145b156114c45780806114c090614b9a565b9150505b600181036114d65760019150506114eb565b80806114e190614b9a565b91505061142a565b505b919050565b6000600560008473ffffffffffffffffffffffffffffffffffffffff1673ffffffffffffffffffffffffffffffffffffffff16815260200190815260200160002060008373ffffffffffffffffffffffffffffffffffffffff1673ffffffffffffffffffffffffffffffffffffffff16815260200190815260200160002060009054906101000a900460ff16905092915050565b61158c6118f5565b600073ffffffffffffffffffffffffffffffffffffffff168173ffffffffffffffffffffffffffffffffffffffff16036115fb576040517f08c379a00000000000000000000000000000000000000000000000000000000081526004016115f290614c54565b60405180910390fd5b611604816122b4565b50565b60105434101561164c576040517f08c379a000000000000000000000000000000000000000000000000000000000815260040161164390614ce6565b60405180910390fd5b600f805490508110611693576040517f08c379a000000000000000000000000000000000000000000000000000000000815260040161168a90614d52565b60405180910390fd5b33600d60006101000a81548173ffffffffffffffffffffffffffffffffffffffff021916908373ffffffffffffffffffffffffffffffffffffffff1602179055506000600c5490506000600f83815481106116f1576116f0614b3c565b5b9060005260206000200180546117069061463c565b80601f01602080910402602001604051908101604052809291908181526020018280546117329061463c565b801561177f5780601f106117545761010080835404028352916020019161177f565b820191906000526020600020905b81548152906001019060200180831161176257829003601f168201915b50505050509050806011600084815260200190815260200160002090816117a69190614f1e565b50806040516117b5919061502c565b60405180910390207fdee2f46abc0e6dd57fd043fdf2786e82a8251c0c912b1300dcc70581471cc860836040516117ec91906140e0565b60405180910390a2611820600d60009054906101000a900473ffffffffffffffffffffffffffffffffffffffff168361276f565b600c600081548092919061183390614b9a565b91905055506000611865600d60009054906101000a900473ffffffffffffffffffffffffffffffffffffffff16611426565b036118f057600e600d60009054906101000a900473ffffffffffffffffffffffffffffffffffffffff169080600181540180825580915050600190039060005260206000200160009091909190916101000a81548173ffffffffffffffffffffffffffffffffffffffff021916908373ffffffffffffffffffffffffffffffffffffffff1602179055505b505050565b6118fd611a28565b73ffffffffffffffffffffffffffffffffffffffff1661191b610fbd565b73ffffffffffffffffffffffffffffffffffffffff1614611971576040517f08c379a00000000000000000000000000000000000000000000000000000000081526004016119689061508f565b60405180910390fd5b565b60007f01ffc9a7000000000000000000000000000000000000000000000000000000007bffffffffffffffffffffffffffffffffffffffffffffffffffffffff1916827bffffffffffffffffffffffffffffffffffffffffffffffffffffffff1916149050919050565b6119e68161278d565b611a25576040517f08c379a0000000000000000000000000000000000000000000000000000000008152600401611a1c90614901565b60405180910390fd5b50565b600033905090565b816004600083815260200190815260200160002060006101000a81548173ffffffffffffffffffffffffffffffffffffffff021916908373ffffffffffffffffffffffffffffffffffffffff160217905550808273ffffffffffffffffffffffffffffffffffffffff16611aa383610e12565b73ffffffffffffffffffffffffffffffffffffffff167f8c5be1e5ebec7d5bd14f71427d1e84f3dd0314c0f7b2291e5b200ac8c7c3b92560405160405180910390a45050565b600080611af583610e12565b90508073ffffffffffffffffffffffffffffffffffffffff168473ffffffffffffffffffffffffffffffffffffffff161480611b375750611b3681856114f0565b5b80611b7557508373ffffffffffffffffffffffffffffffffffffffff16611b5d84610aab565b73ffffffffffffffffffffffffffffffffffffffff16145b91505092915050565b8273ffffffffffffffffffffffffffffffffffffffff16611b9e82610e12565b73ffffffffffffffffffffffffffffffffffffffff1614611bf4576040517f08c379a0000000000000000000000000000000000000000000000000000000008152600401611beb90615121565b60405180910390fd5b600073ffffffffffffffffffffffffffffffffffffffff168273ffffffffffffffffffffffffffffffffffffffff1603611c63576040517f08c379a0000000000000000000000000000000000000000000000000000000008152600401611c5a906151b3565b60405180910390fd5b611c7083838360016127ce565b8273ffffffffffffffffffffffffffffffffffffffff16611c9082610e12565b73ffffffffffffffffffffffffffffffffffffffff1614611ce6576040517f08c379a0000000000000000000000000000000000000000000000000000000008152600401611cdd90615121565b60405180910390fd5b6004600082815260200190815260200160002060006101000a81549073ffffffffffffffffffffffffffffffffffffffff02191690556001600360008573ffffffffffffffffffffffffffffffffffffffff1673ffffffffffffffffffffffffffffffffffffffff168152602001908152602001600020600082825403925050819055506001600360008473ffffffffffffffffffffffffffffffffffffffff1673ffffffffffffffffffffffffffffffffffffffff16815260200190815260200160002060008282540192505081905550816002600083815260200190815260200160002060006101000a81548173ffffffffffffffffffffffffffffffffffffffff021916908373ffffffffffffffffffffffffffffffffffffffff160217905550808273ffffffffffffffffffffffffffffffffffffffff168473ffffffffffffffffffffffffffffffffffffffff167fddf252ad1be2c89b69c2b068fc378daa952ba7f163c4a11628f55a4df523b3ef60405160405180910390a4611e7283838360016128f4565b505050565b60007f000000000000000000000000000000000000000000000000000000000000000073ffffffffffffffffffffffffffffffffffffffff163073ffffffffffffffffffffffffffffffffffffffff16148015611ef357507f000000000000000000000000000000000000000000000000000000000000000046145b15611f20577f00000000000000000000000000000000000000000000000000000000000000009050611f8e565b611f8b7f00000000000000000000000000000000000000000000000000000000000000007f00000000000000000000000000000000000000000000000000000000000000007f0000000000000000000000000000000000000000000000000000000000000000612906565b90505b90565b6000438210611fd5576040517f08c379a0000000000000000000000000000000000000000000000000000000008152600401611fcc9061521f565b60405180910390fd5b6000611fe083612940565b9050600084600001805490509050600080829050600583111561206357600061200884612993565b84612013919061523f565b90506120228860000182612a8c565b60000160009054906101000a900463ffffffff1663ffffffff168563ffffffff16101561205157809150612061565b60018161205e9190615273565b92505b505b600061207488600001868585612aa1565b9050600081146120c85761209788600001600183612092919061523f565b612a8c565b60000160049054906101000a90047bffffffffffffffffffffffffffffffffffffffffffffffffffffffff166120cb565b60005b7bffffffffffffffffffffffffffffffffffffffffffffffffffffffff169550505050505092915050565b6120ff8261278d565b61213e576040517f08c379a000000000000000000000000000000000000000000000000000000000815260040161213590615319565b60405180910390fd5b8060066000848152602001908152602001600020908161215e9190614f1e565b505050565b600061216e83610d8f565b905081600860008573ffffffffffffffffffffffffffffffffffffffff1673ffffffffffffffffffffffffffffffffffffffff16815260200190815260200160002060006101000a81548173ffffffffffffffffffffffffffffffffffffffff021916908373ffffffffffffffffffffffffffffffffffffffff1602179055508173ffffffffffffffffffffffffffffffffffffffff168173ffffffffffffffffffffffffffffffffffffffff168473ffffffffffffffffffffffffffffffffffffffff167f3134e8a2e6d97e929a7e54011ea5485d7d196dd5f0ba4d4ef95803e8e3fc257f60405160405180910390a4612272818361226d86612b14565b612b26565b505050565b60006002600083815260200190815260200160002060009054906101000a900473ffffffffffffffffffffffffffffffffffffffff169050919050565b6000600760009054906101000a900473ffffffffffffffffffffffffffffffffffffffff16905081600760006101000a81548173ffffffffffffffffffffffffffffffffffffffff021916908373ffffffffffffffffffffffffffffffffffffffff1602179055508173ffffffffffffffffffffffffffffffffffffffff168173ffffffffffffffffffffffffffffffffffffffff167f8be0079c531659141344cd1fd0a4f28419497f9722a3daafe3b4186f6b6457e060405160405180910390a35050565b600081600001549050919050565b60008082600001805490509050600081146123e7576123b6836000016001836123b1919061523f565b612a8c565b60000160049054906101000a90047bffffffffffffffffffffffffffffffffffffffffffffffffffffffff166123ea565b60005b915050919050565b8173ffffffffffffffffffffffffffffffffffffffff168373ffffffffffffffffffffffffffffffffffffffff1603612460576040517f08c379a000000000000000000000000000000000000000000000000000000000815260040161245790615385565b60405180910390fd5b80600560008573ffffffffffffffffffffffffffffffffffffffff1673ffffffffffffffffffffffffffffffffffffffff16815260200190815260200160002060008473ffffffffffffffffffffffffffffffffffffffff1673ffffffffffffffffffffffffffffffffffffffff16815260200190815260200160002060006101000a81548160ff0219169083151502179055508173ffffffffffffffffffffffffffffffffffffffff168373ffffffffffffffffffffffffffffffffffffffff167f17307eab39ab6107e8899845ad3d59bd9653f200f220920489ca2b5937696c31836040516125519190613ee6565b60405180910390a3505050565b612569848484611b7e565b61257584848484612d33565b6125b4576040517f08c379a00000000000000000000000000000000000000000000000000000000081526004016125ab90615417565b60405180910390fd5b50505050565b60006125cd6125c7611e77565b83612eba565b9050919050565b60008060006125e587878787612eed565b915091506125f281612fcf565b8192505050949350505050565b600080600b60008473ffffffffffffffffffffffffffffffffffffffff1673ffffffffffffffffffffffffffffffffffffffff168152602001908152602001600020905061264c8161237a565b915061265781613135565b50919050565b6060612668826119dd565b60006006600084815260200190815260200160002080546126889061463c565b80601f01602080910402602001604051908101604052809291908181526020018280546126b49061463c565b80156127015780601f106126d657610100808354040283529160200191612701565b820191906000526020600020905b8154815290600101906020018083116126e457829003601f168201915b50505050509050600061271261314b565b9050600081510361272757819250505061276a565b60008251111561275c578082604051602001612744929190615437565b6040516020818303038152906040529250505061276a565b61276584613162565b925050505b919050565b6127898282604051806020016040528060008152506131ca565b5050565b60008073ffffffffffffffffffffffffffffffffffffffff166127af83612277565b73ffffffffffffffffffffffffffffffffffffffff1614159050919050565b60018111156128ee57600073ffffffffffffffffffffffffffffffffffffffff168473ffffffffffffffffffffffffffffffffffffffff16146128625780600360008673ffffffffffffffffffffffffffffffffffffffff1673ffffffffffffffffffffffffffffffffffffffff168152602001908152602001600020600082825461285a919061523f565b925050819055505b600073ffffffffffffffffffffffffffffffffffffffff168373ffffffffffffffffffffffffffffffffffffffff16146128ed5780600360008573ffffffffffffffffffffffffffffffffffffffff1673ffffffffffffffffffffffffffffffffffffffff16815260200190815260200160002060008282546128e59190615273565b925050819055505b5b50505050565b61290084848484613225565b50505050565b6000838383463060405160200161292195949392919061545b565b6040516020818303038152906040528051906020012090509392505050565b600063ffffffff801682111561298b576040517f08c379a000000000000000000000000000000000000000000000000000000000815260040161298290615520565b60405180910390fd5b819050919050565b60008082036129a55760009050612a87565b600060016129b284613242565b901c6001901b905060018184816129cc576129cb615540565b5b048201901c905060018184816129e5576129e4615540565b5b048201901c905060018184816129fe576129fd615540565b5b048201901c90506001818481612a1757612a16615540565b5b048201901c90506001818481612a3057612a2f615540565b5b048201901c90506001818481612a4957612a48615540565b5b048201901c90506001818481612a6257612a61615540565b5b048201901c9050612a8381828581612a7d57612a7c615540565b5b04613323565b9150505b919050565b60008260005281602060002001905092915050565b60005b81831015612b09576000612ab8848461333c565b90508463ffffffff16612acb8783612a8c565b60000160009054906101000a900463ffffffff1663ffffffff161115612af357809250612b03565b600181612b009190615273565b93505b50612aa4565b819050949350505050565b6000612b1f82610e98565b9050919050565b8173ffffffffffffffffffffffffffffffffffffffff168373ffffffffffffffffffffffffffffffffffffffff1614158015612b625750600081115b15612d2e57600073ffffffffffffffffffffffffffffffffffffffff168373ffffffffffffffffffffffffffffffffffffffff1614612c4a57600080612bf361336284600960008973ffffffffffffffffffffffffffffffffffffffff1673ffffffffffffffffffffffffffffffffffffffff1681526020019081526020016000206133789092919063ffffffff16565b915091508473ffffffffffffffffffffffffffffffffffffffff167fdec2bacdd2f05b59de34da9b523dff8be42e5e38e818c82fdb0bae774387a7248383604051612c3f92919061556f565b60405180910390a250505b600073ffffffffffffffffffffffffffffffffffffffff168273ffffffffffffffffffffffffffffffffffffffff1614612d2d57600080612cd66133c484600960008873ffffffffffffffffffffffffffffffffffffffff1673ffffffffffffffffffffffffffffffffffffffff1681526020019081526020016000206133789092919063ffffffff16565b915091508373ffffffffffffffffffffffffffffffffffffffff167fdec2bacdd2f05b59de34da9b523dff8be42e5e38e818c82fdb0bae774387a7248383604051612d2292919061556f565b60405180910390a250505b5b505050565b6000612d548473ffffffffffffffffffffffffffffffffffffffff166133da565b15612ead578373ffffffffffffffffffffffffffffffffffffffff1663150b7a02612d7d611a28565b8786866040518563ffffffff1660e01b8152600401612d9f94939291906155ed565b6020604051808303816000875af1925050508015612ddb57506040513d601f19601f82011682018060405250810190612dd8919061564e565b60015b612e5d573d8060008114612e0b576040519150601f19603f3d011682016040523d82523d6000602084013e612e10565b606091505b506000815103612e55576040517f08c379a0000000000000000000000000000000000000000000000000000000008152600401612e4c90615417565b60405180910390fd5b805181602001fd5b63150b7a0260e01b7bffffffffffffffffffffffffffffffffffffffffffffffffffffffff1916817bffffffffffffffffffffffffffffffffffffffffffffffffffffffff191614915050612eb2565b600190505b949350505050565b60008282604051602001612ecf9291906156e8565b60405160208183030381529060405280519060200120905092915050565b6000807f7fffffffffffffffffffffffffffffff5d576e7357a4501ddfe92f46681b20a08360001c1115612f28576000600391509150612fc6565b600060018787878760405160008152602001604052604051612f4d949392919061572e565b6020604051602081039080840390855afa158015612f6f573d6000803e3d6000fd5b505050602060405103519050600073ffffffffffffffffffffffffffffffffffffffff168173ffffffffffffffffffffffffffffffffffffffff1603612fbd57600060019250925050612fc6565b80600092509250505b94509492505050565b60006004811115612fe357612fe2615773565b5b816004811115612ff657612ff5615773565b5b031561313257600160048111156130105761300f615773565b5b81600481111561302357613022615773565b5b03613063576040517f08c379a000000000000000000000000000000000000000000000000000000000815260040161305a906157ee565b60405180910390fd5b6002600481111561307757613076615773565b5b81600481111561308a57613089615773565b5b036130ca576040517f08c379a00000000000000000000000000000000000000000000000000000000081526004016130c19061585a565b60405180910390fd5b600360048111156130de576130dd615773565b5b8160048111156130f1576130f0615773565b5b03613131576040517f08c379a0000000000000000000000000000000000000000000000000000000008152600401613128906158ec565b60405180910390fd5b5b50565b6001816000016000828254019250508190555050565b606060405180602001604052806000815250905090565b606061316d826119dd565b600061317761314b565b9050600081511161319757604051806020016040528060008152506131c2565b806131a1846133fd565b6040516020016131b2929190615437565b6040516020818303038152906040525b915050919050565b6131d483836134cb565b6131e16000848484612d33565b613220576040517f08c379a000000000000000000000000000000000000000000000000000000000815260040161321790615417565b60405180910390fd5b505050565b6132308484836136e8565b61323c848484846137a6565b50505050565b600080600090506000608084901c111561326457608083901c92506080810190505b6000604084901c111561327f57604083901c92506040810190505b6000602084901c111561329a57602083901c92506020810190505b6000601084901c11156132b557601083901c92506010810190505b6000600884901c11156132d057600883901c92506008810190505b6000600484901c11156132eb57600483901c92506004810190505b6000600284901c111561330657600283901c92506002810190505b6000600184901c111561331a576001810190505b80915050919050565b60008183106133325781613334565b825b905092915050565b6000600282841861334d919061590c565b82841661335a9190615273565b905092915050565b60008183613370919061523f565b905092915050565b6000806133b8856133b361338b88612388565b7bffffffffffffffffffffffffffffffffffffffffffffffffffffffff16868863ffffffff16565b6137ac565b91509150935093915050565b600081836133d29190615273565b905092915050565b6000808273ffffffffffffffffffffffffffffffffffffffff163b119050919050565b60606000600161340c8461381a565b01905060008167ffffffffffffffff81111561342b5761342a614105565b5b6040519080825280601f01601f19166020018201604052801561345d5781602001600182028036833780820191505090505b509050600082602001820190505b6001156134c0578080600190039150507f3031323334353637383961626364656600000000000000000000000000000000600a86061a8153600a85816134b4576134b3615540565b5b0494506000850361346b575b819350505050919050565b600073ffffffffffffffffffffffffffffffffffffffff168273ffffffffffffffffffffffffffffffffffffffff160361353a576040517f08c379a000000000000000000000000000000000000000000000000000000000815260040161353190615989565b60405180910390fd5b6135438161278d565b15613583576040517f08c379a000000000000000000000000000000000000000000000000000000000815260040161357a906159f5565b60405180910390fd5b6135916000838360016127ce565b61359a8161278d565b156135da576040517f08c379a00000000000000000000000000000000000000000000000000000000081526004016135d1906159f5565b60405180910390fd5b6001600360008473ffffffffffffffffffffffffffffffffffffffff1673ffffffffffffffffffffffffffffffffffffffff16815260200190815260200160002060008282540192505081905550816002600083815260200190815260200160002060006101000a81548173ffffffffffffffffffffffffffffffffffffffff021916908373ffffffffffffffffffffffffffffffffffffffff160217905550808273ffffffffffffffffffffffffffffffffffffffff16600073ffffffffffffffffffffffffffffffffffffffff167fddf252ad1be2c89b69c2b068fc378daa952ba7f163c4a11628f55a4df523b3ef60405160405180910390a46136e46000838360016128f4565b5050565b600073ffffffffffffffffffffffffffffffffffffffff168373ffffffffffffffffffffffffffffffffffffffff1603613737576137346133c482600a6133789092919063ffffffff16565b50505b600073ffffffffffffffffffffffffffffffffffffffff168273ffffffffffffffffffffffffffffffffffffffff16036137865761378361336282600a6133789092919063ffffffff16565b50505b6137a161379284610d8f565b61379b84610d8f565b83612b26565b505050565b50505050565b6000806137cd846000016137bf43612940565b6137c88661396d565b6139d8565b817bffffffffffffffffffffffffffffffffffffffffffffffffffffffff169150807bffffffffffffffffffffffffffffffffffffffffffffffffffffffff169050915091509250929050565b600080600090507a184f03e93ff9f4daa797ed6e38ed64bf6a1f0100000000000000008310613878577a184f03e93ff9f4daa797ed6e38ed64bf6a1f010000000000000000838161386e5761386d615540565b5b0492506040810190505b6d04ee2d6d415b85acef810000000083106138b5576d04ee2d6d415b85acef810000000083816138ab576138aa615540565b5b0492506020810190505b662386f26fc1000083106138e457662386f26fc1000083816138da576138d9615540565b5b0492506010810190505b6305f5e100831061390d576305f5e100838161390357613902615540565b5b0492506008810190505b612710831061393257612710838161392857613927615540565b5b0492506004810190505b60648310613955576064838161394b5761394a615540565b5b0492506002810190505b600a8310613964576001810190505b80915050919050565b60007bffffffffffffffffffffffffffffffffffffffffffffffffffffffff80168211156139d0576040517f08c379a00000000000000000000000000000000000000000000000000000000081526004016139c790615a87565b60405180910390fd5b819050919050565b6000806000858054905090506000811115613c6e576000613a0587600184613a00919061523f565b612a8c565b6040518060400160405290816000820160009054906101000a900463ffffffff1663ffffffff1663ffffffff1681526020016000820160049054906101000a90047bffffffffffffffffffffffffffffffffffffffffffffffffffffffff167bffffffffffffffffffffffffffffffffffffffffffffffffffffffff167bffffffffffffffffffffffffffffffffffffffffffffffffffffffff168152505090508563ffffffff16816000015163ffffffff161115613af9576040517f08c379a0000000000000000000000000000000000000000000000000000000008152600401613af090615af3565b60405180910390fd5b8563ffffffff16816000015163ffffffff1603613b7d5784613b2788600185613b22919061523f565b612a8c565b60000160046101000a8154817bffffffffffffffffffffffffffffffffffffffffffffffffffffffff02191690837bffffffffffffffffffffffffffffffffffffffffffffffffffffffff160217905550613c5d565b8660405180604001604052808863ffffffff168152602001877bffffffffffffffffffffffffffffffffffffffffffffffffffffffff168152509080600181540180825580915050600190039060005260206000200160009091909190915060008201518160000160006101000a81548163ffffffff021916908363ffffffff16021790555060208201518160000160046101000a8154817bffffffffffffffffffffffffffffffffffffffffffffffffffffffff02191690837bffffffffffffffffffffffffffffffffffffffffffffffffffffffff16021790555050505b806020015185935093505050613d56565b8560405180604001604052808763ffffffff168152602001867bffffffffffffffffffffffffffffffffffffffffffffffffffffffff168152509080600181540180825580915050600190039060005260206000200160009091909190915060008201518160000160006101000a81548163ffffffff021916908363ffffffff16021790555060208201518160000160046101000a8154817bffffffffffffffffffffffffffffffffffffffffffffffffffffffff02191690837bffffffffffffffffffffffffffffffffffffffffffffffffffffffff160217905550505060008492509250505b935093915050565b6000604051905090565b600080fd5b600080fd5b6000819050919050565b613d8581613d72565b8114613d9057600080fd5b50565b600081359050613da281613d7c565b92915050565b600073ffffffffffffffffffffffffffffffffffffffff82169050919050565b6000613dd382613da8565b9050919050565b613de381613dc8565b8114613dee57600080fd5b50565b600081359050613e0081613dda565b92915050565b60008060408385031215613e1d57613e1c613d68565b5b6000613e2b85828601613d93565b9250506020613e3c85828601613df1565b9150509250929050565b60007fffffffff0000000000000000000000000000000000000000000000000000000082169050919050565b613e7b81613e46565b8114613e8657600080fd5b50565b600081359050613e9881613e72565b92915050565b600060208284031215613eb457613eb3613d68565b5b6000613ec284828501613e89565b91505092915050565b60008115159050919050565b613ee081613ecb565b82525050565b6000602082019050613efb6000830184613ed7565b92915050565b600081519050919050565b600082825260208201905092915050565b60005b83811015613f3b578082015181840152602081019050613f20565b60008484015250505050565b6000601f19601f8301169050919050565b6000613f6382613f01565b613f6d8185613f0c565b9350613f7d818560208601613f1d565b613f8681613f47565b840191505092915050565b60006020820190508181036000830152613fab8184613f58565b905092915050565b600060208284031215613fc957613fc8613d68565b5b6000613fd784828501613d93565b91505092915050565b613fe981613dc8565b82525050565b60006020820190506140046000830184613fe0565b92915050565b6000806040838503121561402157614020613d68565b5b600061402f85828601613df1565b925050602061404085828601613d93565b9150509250929050565b60008060006060848603121561406357614062613d68565b5b600061407186828701613df1565b935050602061408286828701613df1565b925050604061409386828701613d93565b9150509250925092565b6000819050919050565b6140b08161409d565b82525050565b60006020820190506140cb60008301846140a7565b92915050565b6140da81613d72565b82525050565b60006020820190506140f560008301846140d1565b92915050565b600080fd5b600080fd5b7f4e487b7100000000000000000000000000000000000000000000000000000000600052604160045260246000fd5b61413d82613f47565b810181811067ffffffffffffffff8211171561415c5761415b614105565b5b80604052505050565b600061416f613d5e565b905061417b8282614134565b919050565b600067ffffffffffffffff82111561419b5761419a614105565b5b6141a482613f47565b9050602081019050919050565b82818337600083830152505050565b60006141d36141ce84614180565b614165565b9050828152602081018484840111156141ef576141ee614100565b5b6141fa8482856141b1565b509392505050565b600082601f830112614217576142166140fb565b5b81356142278482602086016141c0565b91505092915050565b6000806040838503121561424757614246613d68565b5b600061425585828601613d93565b925050602083013567ffffffffffffffff81111561427657614275613d6d565b5b61428285828601614202565b9150509250929050565b6000602082840312156142a2576142a1613d68565b5b60006142b084828501613df1565b91505092915050565b6142c281613ecb565b81146142cd57600080fd5b50565b6000813590506142df816142b9565b92915050565b600080604083850312156142fc576142fb613d68565b5b600061430a85828601613df1565b925050602061431b858286016142d0565b9150509250929050565b600067ffffffffffffffff8211156143405761433f614105565b5b61434982613f47565b9050602081019050919050565b600061436961436484614325565b614165565b90508281526020810184848401111561438557614384614100565b5b6143908482856141b1565b509392505050565b600082601f8301126143ad576143ac6140fb565b5b81356143bd848260208601614356565b91505092915050565b600080600080608085870312156143e0576143df613d68565b5b60006143ee87828801613df1565b94505060206143ff87828801613df1565b935050604061441087828801613d93565b925050606085013567ffffffffffffffff81111561443157614430613d6d565b5b61443d87828801614398565b91505092959194509250565b600060ff82169050919050565b61445f81614449565b811461446a57600080fd5b50565b60008135905061447c81614456565b92915050565b61448b8161409d565b811461449657600080fd5b50565b6000813590506144a881614482565b92915050565b60008060008060008060c087890312156144cb576144ca613d68565b5b60006144d989828a01613df1565b96505060206144ea89828a01613d93565b95505060406144fb89828a01613d93565b945050606061450c89828a0161446d565b935050608061451d89828a01614499565b92505060a061452e89828a01614499565b9150509295509295509295565b6000806040838503121561455257614551613d68565b5b600061456085828601613df1565b925050602061457185828601613df1565b9150509250929050565b7f596f752061726520747279696e6720746f207769746864726177206d6f72652060008201527f7468616e2074686520636f6e7472616374732062616c616e6365000000000000602082015250565b60006145d7603a83613f0c565b91506145e28261457b565b604082019050919050565b60006020820190508181036000830152614606816145ca565b9050919050565b7f4e487b7100000000000000000000000000000000000000000000000000000000600052602260045260246000fd5b6000600282049050600182168061465457607f821691505b6020821081036146675761466661460d565b5b50919050565b7f4552433732313a20617070726f76616c20746f2063757272656e74206f776e6560008201527f7200000000000000000000000000000000000000000000000000000000000000602082015250565b60006146c9602183613f0c565b91506146d48261466d565b604082019050919050565b600060208201905081810360008301526146f8816146bc565b9050919050565b7f4552433732313a20617070726f76652063616c6c6572206973206e6f7420746f60008201527f6b656e206f776e6572206f7220617070726f76656420666f7220616c6c000000602082015250565b600061475b603d83613f0c565b9150614766826146ff565b604082019050919050565b6000602082019050818103600083015261478a8161474e565b9050919050565b7f4552433732313a2063616c6c6572206973206e6f7420746f6b656e206f776e6560008201527f72206f7220617070726f76656400000000000000000000000000000000000000602082015250565b60006147ed602d83613f0c565b91506147f882614791565b604082019050919050565b6000602082019050818103600083015261481c816147e0565b9050919050565b7f536f72727920796f752061696e7420746865206f6e776572206f66207468697360008201527f20746f6b656e49642e2e00000000000000000000000000000000000000000000602082015250565b600061487f602a83613f0c565b915061488a82614823565b604082019050919050565b600060208201905081810360008301526148ae81614872565b9050919050565b7f4552433732313a20696e76616c696420746f6b656e2049440000000000000000600082015250565b60006148eb601883613f0c565b91506148f6826148b5565b602082019050919050565b6000602082019050818103600083015261491a816148de565b9050919050565b7f4552433732313a2061646472657373207a65726f206973206e6f74206120766160008201527f6c6964206f776e65720000000000000000000000000000000000000000000000602082015250565b600061497d602983613f0c565b915061498882614921565b604082019050919050565b600060208201905081810360008301526149ac81614970565b9050919050565b7f566f7465733a20626c6f636b206e6f7420796574206d696e6564000000000000600082015250565b60006149e9601a83613f0c565b91506149f4826149b3565b602082019050919050565b60006020820190508181036000830152614a18816149dc565b9050919050565b7f566f7465733a207369676e617475726520657870697265640000000000000000600082015250565b6000614a55601883613f0c565b9150614a6082614a1f565b602082019050919050565b60006020820190508181036000830152614a8481614a48565b9050919050565b6000608082019050614aa060008301876140a7565b614aad6020830186613fe0565b614aba60408301856140d1565b614ac760608301846140d1565b95945050505050565b7f566f7465733a20696e76616c6964206e6f6e6365000000000000000000000000600082015250565b6000614b06601483613f0c565b9150614b1182614ad0565b602082019050919050565b60006020820190508181036000830152614b3581614af9565b9050919050565b7f4e487b7100000000000000000000000000000000000000000000000000000000600052603260045260246000fd5b7f4e487b7100000000000000000000000000000000000000000000000000000000600052601160045260246000fd5b6000614ba582613d72565b91507fffffffffffffffffffffffffffffffffffffffffffffffffffffffffffffffff8203614bd757614bd6614b6b565b5b600182019050919050565b7f4f776e61626c653a206e6577206f776e657220697320746865207a65726f206160008201527f6464726573730000000000000000000000000000000000000000000000000000602082015250565b6000614c3e602683613f0c565b9150614c4982614be2565b604082019050919050565b60006020820190508181036000830152614c6d81614c31565b9050919050565b7f4e6f7420656e6f7567682062616c616e636520746f206d696e7420746869732060008201527f46756368614e6674000000000000000000000000000000000000000000000000602082015250565b6000614cd0602883613f0c565b9150614cdb82614c74565b604082019050919050565b60006020820190508181036000830152614cff81614cc3565b9050919050565b7f427265656420696e64657820646f65736e742065786973740000000000000000600082015250565b6000614d3c601883613f0c565b9150614d4782614d06565b602082019050919050565b60006020820190508181036000830152614d6b81614d2f565b9050919050565b60008190508160005260206000209050919050565b60006020601f8301049050919050565b600082821b905092915050565b600060088302614dd47fffffffffffffffffffffffffffffffffffffffffffffffffffffffffffffffff82614d97565b614dde8683614d97565b95508019841693508086168417925050509392505050565b6000819050919050565b6000614e1b614e16614e1184613d72565b614df6565b613d72565b9050919050565b6000819050919050565b614e3583614e00565b614e49614e4182614e22565b848454614da4565b825550505050565b600090565b614e5e614e51565b614e69818484614e2c565b505050565b5b81811015614e8d57614e82600082614e56565b600181019050614e6f565b5050565b601f821115614ed257614ea381614d72565b614eac84614d87565b81016020851015614ebb578190505b614ecf614ec785614d87565b830182614e6e565b50505b505050565b600082821c905092915050565b6000614ef560001984600802614ed7565b1980831691505092915050565b6000614f0e8383614ee4565b9150826002028217905092915050565b614f2782613f01565b67ffffffffffffffff811115614f4057614f3f614105565b5b614f4a825461463c565b614f55828285614e91565b600060209050601f831160018114614f885760008415614f76578287015190505b614f808582614f02565b865550614fe8565b601f198416614f9686614d72565b60005b82811015614fbe57848901518255600182019150602085019450602081019050614f99565b86831015614fdb5784890151614fd7601f891682614ee4565b8355505b6001600288020188555050505b505050505050565b600081905092915050565b600061500682613f01565b6150108185614ff0565b9350615020818560208601613f1d565b80840191505092915050565b60006150388284614ffb565b915081905092915050565b7f4f776e61626c653a2063616c6c6572206973206e6f7420746865206f776e6572600082015250565b6000615079602083613f0c565b915061508482615043565b602082019050919050565b600060208201905081810360008301526150a88161506c565b9050919050565b7f4552433732313a207472616e736665722066726f6d20696e636f72726563742060008201527f6f776e6572000000000000000000000000000000000000000000000000000000602082015250565b600061510b602583613f0c565b9150615116826150af565b604082019050919050565b6000602082019050818103600083015261513a816150fe565b9050919050565b7f4552433732313a207472616e7366657220746f20746865207a65726f2061646460008201527f7265737300000000000000000000000000000000000000000000000000000000602082015250565b600061519d602483613f0c565b91506151a882615141565b604082019050919050565b600060208201905081810360008301526151cc81615190565b9050919050565b7f436865636b706f696e74733a20626c6f636b206e6f7420796574206d696e6564600082015250565b6000615209602083613f0c565b9150615214826151d3565b602082019050919050565b60006020820190508181036000830152615238816151fc565b9050919050565b600061524a82613d72565b915061525583613d72565b925082820390508181111561526d5761526c614b6b565b5b92915050565b600061527e82613d72565b915061528983613d72565b92508282019050808211156152a1576152a0614b6b565b5b92915050565b7f45524337323155524953746f726167653a2055524920736574206f66206e6f6e60008201527f6578697374656e7420746f6b656e000000000000000000000000000000000000602082015250565b6000615303602e83613f0c565b915061530e826152a7565b604082019050919050565b60006020820190508181036000830152615332816152f6565b9050919050565b7f4552433732313a20617070726f766520746f2063616c6c657200000000000000600082015250565b600061536f601983613f0c565b915061537a82615339565b602082019050919050565b6000602082019050818103600083015261539e81615362565b9050919050565b7f4552433732313a207472616e7366657220746f206e6f6e20455243373231526560008201527f63656976657220696d706c656d656e7465720000000000000000000000000000602082015250565b6000615401603283613f0c565b915061540c826153a5565b604082019050919050565b60006020820190508181036000830152615430816153f4565b9050919050565b60006154438285614ffb565b915061544f8284614ffb565b91508190509392505050565b600060a08201905061547060008301886140a7565b61547d60208301876140a7565b61548a60408301866140a7565b61549760608301856140d1565b6154a46080830184613fe0565b9695505050505050565b7f53616665436173743a2076616c756520646f65736e27742066697420696e203360008201527f3220626974730000000000000000000000000000000000000000000000000000602082015250565b600061550a602683613f0c565b9150615515826154ae565b604082019050919050565b60006020820190508181036000830152615539816154fd565b9050919050565b7f4e487b7100000000000000000000000000000000000000000000000000000000600052601260045260246000fd5b600060408201905061558460008301856140d1565b61559160208301846140d1565b9392505050565b600081519050919050565b600082825260208201905092915050565b60006155bf82615598565b6155c981856155a3565b93506155d9818560208601613f1d565b6155e281613f47565b840191505092915050565b60006080820190506156026000830187613fe0565b61560f6020830186613fe0565b61561c60408301856140d1565b818103606083015261562e81846155b4565b905095945050505050565b60008151905061564881613e72565b92915050565b60006020828403121561566457615663613d68565b5b600061567284828501615639565b91505092915050565b7f1901000000000000000000000000000000000000000000000000000000000000600082015250565b60006156b1600283614ff0565b91506156bc8261567b565b600282019050919050565b6000819050919050565b6156e26156dd8261409d565b6156c7565b82525050565b60006156f3826156a4565b91506156ff82856156d1565b60208201915061570f82846156d1565b6020820191508190509392505050565b61572881614449565b82525050565b600060808201905061574360008301876140a7565b615750602083018661571f565b61575d60408301856140a7565b61576a60608301846140a7565b95945050505050565b7f4e487b7100000000000000000000000000000000000000000000000000000000600052602160045260246000fd5b7f45434453413a20696e76616c6964207369676e61747572650000000000000000600082015250565b60006157d8601883613f0c565b91506157e3826157a2565b602082019050919050565b60006020820190508181036000830152615807816157cb565b9050919050565b7f45434453413a20696e76616c6964207369676e6174757265206c656e67746800600082015250565b6000615844601f83613f0c565b915061584f8261580e565b602082019050919050565b6000602082019050818103600083015261587381615837565b9050919050565b7f45434453413a20696e76616c6964207369676e6174757265202773272076616c60008201527f7565000000000000000000000000000000000000000000000000000000000000602082015250565b60006158d6602283613f0c565b91506158e18261587a565b604082019050919050565b60006020820190508181036000830152615905816158c9565b9050919050565b600061591782613d72565b915061592283613d72565b92508261593257615931615540565b5b828204905092915050565b7f4552433732313a206d696e7420746f20746865207a65726f2061646472657373600082015250565b6000615973602083613f0c565b915061597e8261593d565b602082019050919050565b600060208201905081810360008301526159a281615966565b9050919050565b7f4552433732313a20746f6b656e20616c7265616479206d696e74656400000000600082015250565b60006159df601c83613f0c565b91506159ea826159a9565b602082019050919050565b60006020820190508181036000830152615a0e816159d2565b9050919050565b7f53616665436173743a2076616c756520646f65736e27742066697420696e203260008201527f3234206269747300000000000000000000000000000000000000000000000000602082015250565b6000615a71602783613f0c565b9150615a7c82615a15565b604082019050919050565b60006020820190508181036000830152615aa081615a64565b9050919050565b7f436865636b706f696e743a20696e76616c6964206b6579000000000000000000600082015250565b6000615add601783613f0c565b9150615ae882615aa7565b602082019050919050565b60006020820190508181036000830152615b0c81615ad0565b905091905056fea2646970667358221220d211d767ff6ded24da45f16bbace3b40cf3c7c49af110aaa5beb8e9b2b90a55264736f6c63430008110033",
  "devdoc": {
    "kind": "dev",
    "methods": {
      "DOMAIN_SEPARATOR()": {
        "details": "Returns the contract's {EIP712} domain separator."
      },
      "approve(address,uint256)": {
        "details": "See {IERC721-approve}."
      },
      "balanceOf(address)": {
        "details": "See {IERC721-balanceOf}."
      },
      "delegate(address)": {
        "details": "Delegates votes from the sender to `delegatee`."
      },
      "delegateBySig(address,uint256,uint256,uint8,bytes32,bytes32)": {
        "details": "Delegates votes from signer to `delegatee`."
      },
      "delegates(address)": {
        "details": "Returns the delegate that `account` has chosen."
      },
      "getApproved(uint256)": {
        "details": "See {IERC721-getApproved}."
      },
      "getPastTotalSupply(uint256)": {
        "details": "Returns the total supply of votes available at the end of a past block (`blockNumber`). NOTE: This value is the sum of all available votes, which is not necessarily the sum of all delegated votes. Votes that have not been delegated are still part of total supply, even though they would not participate in a vote. Requirements: - `blockNumber` must have been already mined"
      },
      "getPastVotes(address,uint256)": {
        "details": "Returns the amount of votes that `account` had at the end of a past block (`blockNumber`). Requirements: - `blockNumber` must have been already mined"
      },
      "getVotes(address)": {
        "details": "Returns the current amount of votes that `account` has."
      },
      "isApprovedForAll(address,address)": {
        "details": "See {IERC721-isApprovedForAll}."
      },
      "name()": {
        "details": "See {IERC721Metadata-name}."
      },
      "nonces(address)": {
        "details": "Returns an address nonce."
      },
      "owner()": {
        "details": "Returns the address of the current owner."
      },
      "ownerOf(uint256)": {
        "details": "See {IERC721-ownerOf}."
      },
      "renounceOwnership()": {
        "details": "Leaves the contract without owner. It will not be possible to call `onlyOwner` functions anymore. Can only be called by the current owner. NOTE: Renouncing ownership will leave the contract without an owner, thereby removing any functionality that is only available to the owner."
      },
      "safeTransferFrom(address,address,uint256)": {
        "details": "See {IERC721-safeTransferFrom}."
      },
      "safeTransferFrom(address,address,uint256,bytes)": {
        "details": "See {IERC721-safeTransferFrom}."
      },
      "setApprovalForAll(address,bool)": {
        "details": "See {IERC721-setApprovalForAll}."
      },
      "supportsInterface(bytes4)": {
        "details": "See {IERC165-supportsInterface}."
      },
      "symbol()": {
        "details": "See {IERC721Metadata-symbol}."
      },
      "transferFrom(address,address,uint256)": {
        "details": "See {IERC721-transferFrom}."
      },
      "transferOwnership(address)": {
        "details": "Transfers ownership of the contract to a new account (`newOwner`). Can only be called by the current owner."
      }
    },
    "version": 1
  },
  "userdoc": {
    "kind": "user",
    "methods": {},
    "version": 1
  },
  "storageLayout": {
    "storage": [
      {
        "astId": 670,
        "contract": "contracts/FuchaNft.sol:FuchaNft",
        "label": "_name",
        "offset": 0,
        "slot": "0",
        "type": "t_string_storage"
      },
      {
        "astId": 672,
        "contract": "contracts/FuchaNft.sol:FuchaNft",
        "label": "_symbol",
        "offset": 0,
        "slot": "1",
        "type": "t_string_storage"
      },
      {
        "astId": 676,
        "contract": "contracts/FuchaNft.sol:FuchaNft",
        "label": "_owners",
        "offset": 0,
        "slot": "2",
        "type": "t_mapping(t_uint256,t_address)"
      },
      {
        "astId": 680,
        "contract": "contracts/FuchaNft.sol:FuchaNft",
        "label": "_balances",
        "offset": 0,
        "slot": "3",
        "type": "t_mapping(t_address,t_uint256)"
      },
      {
        "astId": 684,
        "contract": "contracts/FuchaNft.sol:FuchaNft",
        "label": "_tokenApprovals",
        "offset": 0,
        "slot": "4",
        "type": "t_mapping(t_uint256,t_address)"
      },
      {
        "astId": 690,
        "contract": "contracts/FuchaNft.sol:FuchaNft",
        "label": "_operatorApprovals",
        "offset": 0,
        "slot": "5",
        "type": "t_mapping(t_address,t_mapping(t_address,t_bool))"
      },
      {
        "astId": 1736,
        "contract": "contracts/FuchaNft.sol:FuchaNft",
        "label": "_tokenURIs",
        "offset": 0,
        "slot": "6",
        "type": "t_mapping(t_uint256,t_string_storage)"
      },
      {
        "astId": 7,
        "contract": "contracts/FuchaNft.sol:FuchaNft",
        "label": "_owner",
        "offset": 0,
        "slot": "7",
        "type": "t_address"
      },
      {
        "astId": 221,
        "contract": "contracts/FuchaNft.sol:FuchaNft",
        "label": "_delegation",
        "offset": 0,
        "slot": "8",
        "type": "t_mapping(t_address,t_address)"
      },
      {
        "astId": 226,
        "contract": "contracts/FuchaNft.sol:FuchaNft",
        "label": "_delegateCheckpoints",
        "offset": 0,
        "slot": "9",
        "type": "t_mapping(t_address,t_struct(History)2271_storage)"
      },
      {
        "astId": 229,
        "contract": "contracts/FuchaNft.sol:FuchaNft",
        "label": "_totalCheckpoints",
        "offset": 0,
        "slot": "10",
        "type": "t_struct(History)2271_storage"
      },
      {
        "astId": 234,
        "contract": "contracts/FuchaNft.sol:FuchaNft",
        "label": "_nonces",
        "offset": 0,
        "slot": "11",
        "type": "t_mapping(t_address,t_struct(Counter)3660_storage)"
      },
      {
        "astId": 6879,
        "contract": "contracts/FuchaNft.sol:FuchaNft",
        "label": "tokenCounter",
        "offset": 0,
        "slot": "12",
        "type": "t_uint256"
      },
      {
        "astId": 6881,
        "contract": "contracts/FuchaNft.sol:FuchaNft",
        "label": "fucha_owner",
        "offset": 0,
        "slot": "13",
        "type": "t_address"
      },
      {
        "astId": 6884,
        "contract": "contracts/FuchaNft.sol:FuchaNft",
        "label": "fucha_owners",
        "offset": 0,
        "slot": "14",
        "type": "t_array(t_address)dyn_storage"
      },
      {
        "astId": 6892,
        "contract": "contracts/FuchaNft.sol:FuchaNft",
        "label": "breed",
        "offset": 0,
        "slot": "15",
        "type": "t_array(t_string_storage)dyn_storage"
      },
      {
        "astId": 6894,
        "contract": "contracts/FuchaNft.sol:FuchaNft",
        "label": "mintFee",
        "offset": 0,
        "slot": "16",
        "type": "t_uint256"
      },
      {
        "astId": 6898,
        "contract": "contracts/FuchaNft.sol:FuchaNft",
        "label": "tokenIdToBreed",
        "offset": 0,
        "slot": "17",
        "type": "t_mapping(t_uint256,t_string_storage)"
      }
    ],
    "types": {
      "t_address": {
        "encoding": "inplace",
        "label": "address",
        "numberOfBytes": "20"
      },
      "t_array(t_address)dyn_storage": {
        "base": "t_address",
        "encoding": "dynamic_array",
        "label": "address[]",
        "numberOfBytes": "32"
      },
      "t_array(t_string_storage)dyn_storage": {
        "base": "t_string_storage",
        "encoding": "dynamic_array",
        "label": "string[]",
        "numberOfBytes": "32"
      },
      "t_array(t_struct(Checkpoint)2276_storage)dyn_storage": {
        "base": "t_struct(Checkpoint)2276_storage",
        "encoding": "dynamic_array",
        "label": "struct Checkpoints.Checkpoint[]",
        "numberOfBytes": "32"
      },
      "t_bool": {
        "encoding": "inplace",
        "label": "bool",
        "numberOfBytes": "1"
      },
      "t_mapping(t_address,t_address)": {
        "encoding": "mapping",
        "key": "t_address",
        "label": "mapping(address => address)",
        "numberOfBytes": "32",
        "value": "t_address"
      },
      "t_mapping(t_address,t_bool)": {
        "encoding": "mapping",
        "key": "t_address",
        "label": "mapping(address => bool)",
        "numberOfBytes": "32",
        "value": "t_bool"
      },
      "t_mapping(t_address,t_mapping(t_address,t_bool))": {
        "encoding": "mapping",
        "key": "t_address",
        "label": "mapping(address => mapping(address => bool))",
        "numberOfBytes": "32",
        "value": "t_mapping(t_address,t_bool)"
      },
      "t_mapping(t_address,t_struct(Counter)3660_storage)": {
        "encoding": "mapping",
        "key": "t_address",
        "label": "mapping(address => struct Counters.Counter)",
        "numberOfBytes": "32",
        "value": "t_struct(Counter)3660_storage"
      },
      "t_mapping(t_address,t_struct(History)2271_storage)": {
        "encoding": "mapping",
        "key": "t_address",
        "label": "mapping(address => struct Checkpoints.History)",
        "numberOfBytes": "32",
        "value": "t_struct(History)2271_storage"
      },
      "t_mapping(t_address,t_uint256)": {
        "encoding": "mapping",
        "key": "t_address",
        "label": "mapping(address => uint256)",
        "numberOfBytes": "32",
        "value": "t_uint256"
      },
      "t_mapping(t_uint256,t_address)": {
        "encoding": "mapping",
        "key": "t_uint256",
        "label": "mapping(uint256 => address)",
        "numberOfBytes": "32",
        "value": "t_address"
      },
      "t_mapping(t_uint256,t_string_storage)": {
        "encoding": "mapping",
        "key": "t_uint256",
        "label": "mapping(uint256 => string)",
        "numberOfBytes": "32",
        "value": "t_string_storage"
      },
      "t_string_storage": {
        "encoding": "bytes",
        "label": "string",
        "numberOfBytes": "32"
      },
      "t_struct(Checkpoint)2276_storage": {
        "encoding": "inplace",
        "label": "struct Checkpoints.Checkpoint",
        "members": [
          {
            "astId": 2273,
            "contract": "contracts/FuchaNft.sol:FuchaNft",
            "label": "_blockNumber",
            "offset": 0,
            "slot": "0",
            "type": "t_uint32"
          },
          {
            "astId": 2275,
            "contract": "contracts/FuchaNft.sol:FuchaNft",
            "label": "_value",
            "offset": 4,
            "slot": "0",
            "type": "t_uint224"
          }
        ],
        "numberOfBytes": "32"
      },
      "t_struct(Counter)3660_storage": {
        "encoding": "inplace",
        "label": "struct Counters.Counter",
        "members": [
          {
            "astId": 3659,
            "contract": "contracts/FuchaNft.sol:FuchaNft",
            "label": "_value",
            "offset": 0,
            "slot": "0",
            "type": "t_uint256"
          }
        ],
        "numberOfBytes": "32"
      },
      "t_struct(History)2271_storage": {
        "encoding": "inplace",
        "label": "struct Checkpoints.History",
        "members": [
          {
            "astId": 2270,
            "contract": "contracts/FuchaNft.sol:FuchaNft",
            "label": "_checkpoints",
            "offset": 0,
            "slot": "0",
            "type": "t_array(t_struct(Checkpoint)2276_storage)dyn_storage"
          }
        ],
        "numberOfBytes": "32"
      },
      "t_uint224": {
        "encoding": "inplace",
        "label": "uint224",
        "numberOfBytes": "28"
      },
      "t_uint256": {
        "encoding": "inplace",
        "label": "uint256",
        "numberOfBytes": "32"
      },
      "t_uint32": {
        "encoding": "inplace",
        "label": "uint32",
        "numberOfBytes": "4"
      }
    }
  }
}